:100000000C9452150C9483150C9483150C94831541
:100010000C9483150C9483150C9483150C94831500
:100020000C9483150C94CD5D0C94CD5D0C94CD5D3A
:100030000C9483150C9483150C9483150C948315E0
:100040000C9483150C94D0490C9483150C9483154F
:100050000C9483150C9483150C944BD00C94835CF6
:100060000C9483150C94993F0C9483150C94831570
:100070000C9483150C9483150C9483150C948315A0
:100080000C9483150C9483150C9483150C94831590
:100090000C9483150C9483150C9483150C94831580
:1000A0000C9483150C9483150C9483150C94831570
:1000B0000C9483150C9483150C9483150C94831560
:1000C0000C9483150C9483150C9483150C94831550
:1000D0000C9483150C9483150C9483150C94831540
:1000E0000C948315005B035BF25AF65AFC5A3A5B98
:1000F000075B0B5B115B155B195B1F5B235B275B6E
:100100003A5B2D5B315B355B9F5BA45BA95BB35BAB
:10011000BD5B365CC75BCF5BD75BE15BEB5BF55BE5
:10012000045C0E5C365C185C225C2C5CA27DA67DB7
:10013000B77DC47DD17DDE7DEB7DF87D887E057E3B
:10014000887E887E1D7EA4D9A8D9D0D9D4D9DBD900
:10015000EBD909DA20DA71DB45DA71DB5BDA71DBC6
:1001600081DA87DAD7DAF4DA09DB15DB33DB55DB42
:10017000084AD73B3BCE016E84BCBFFDC12F3D6C0E
:1001800074319ABD56833DDA3D00C77F11BED9E474
:10019000BB4C3E916BAAAABE000000803F05A84C54
:1001A000CDB2D44EB93836A9020C50B99186880820
:1001B0003CA6AAAA2ABE000000803F004E414E493C
:1001C0004E495459494E46CDCCCC3D0AD7233C1715
:1001D000B7D13877CC2B329595E6241FB14F0A0062
:1001E0000020410000C84200401C4620BCBE4CCA52
:1001F0001B0E5AAEC59D74434F4D4D554E4943415C
:1002000054494F4E0044525952554E004552524F98
:10021000525300494E464F004543484F0047322F46
:1002200047332062616420706172616D657465722C
:10023000730A004D65736820706F696E7420636186
:100240006E6E6F74206265207265736F6C76656484
:100250000A00436C69636B20746F20726573756D5F
:10026000652E2E2E004E6F206D6F76652E00456E2A
:10027000642066696C65206C6973740A0042656766
:10028000696E2066696C65206C6973740A00286E5B
:100290006F2066696C6529005344207072696E7422
:1002A000696E67206279746520004E6F7420534434
:1002B000207072696E74696E670A004375727265A8
:1002C0006E742066696C653A2000256973002569A3
:1002D0006D20256973002569682025696D202569D1
:1002E0007300256964202569682025696D202569CA
:1002F00073002569792025696420256968202569AE
:100300006D20256973005072696E742074696D6583
:100310003A2000180213020C020502F7016F66660C
:100320000044454255473A004B494C4C45442E2029
:10033000004D3131332053006F6B0020573A004598
:1003400020436F6F6C696E672E2E2E004520486526
:100350006174696E672E2E2E0020573A0042656444
:1003600020636F6F6C696E672E2E2E0042656420CD
:1003700068656174696E672E2E2E003344205072BA
:10038000696E746572204F66662E007A5F6D696EC5
:100390003A2000795F6D696E3A2000785F6D696E72
:1003A0003A20005265706F7274696E6720656E64E2
:1003B00073746F70207374617475730A004D3134F7
:1003C0003520533C696E6465783E206F7574206FEC
:1003D000662072616E67652028302D31290A002061
:1003E0005400205200416363656C65726174696FEB
:1003F0006E3A2050005741524E494E4721204C6FD3
:1004000077205A204A65726B206D6179206C656196
:100410006420746F20756E77616E746564207061FE
:10042000757365732E0A004F666673657473206179
:1004300070706C696564004572723A20546F6F2069
:100440006661722100546F6F206661722066726F60
:100450006D207265666572656E636520706F696E8A
:10046000740A00205A00205900580020204D61785D
:100470003A2000205A00205900580020204D696E73
:100480003A20004F6E20004F666600536F6674205E
:10049000656E6473746F70733A200020466C6F77DA
:1004A0003A200000013637263FFFFFFF463C3D382B
:1004B0000EFFFFFF272B303A0CFFFFFFFF4AFF0B19
:1004C00008FF0304FF1A1C18FFFF2F084505FF4211
:1004D00020643A0020693A0020703A00496E766143
:1004E0006C69642065787472756465720A004329CA
:1004F0000A0061626C656420286D696E2074656D08
:10050000702000436F6C6420657874727564657345
:1005100020617265200023646566696E652044452C
:100520004641554C545F4B64200023646566696EF8
:10053000652044454641554C545F4B692000236477
:100540006566696E652044454641554C545F4B7065
:100550002000504944204175746F74756E652066A3
:10056000696E6973686564212050757420746865CC
:10057000206C617374204B702C204B6920616E6479
:10058000204B6420636F6E7374616E7473206672A7
:100590006F6D2062656C6F7720696E746F20436F9A
:1005A0006E66696775726174696F6E2E680A0050B5
:1005B0004944204175746F74756E65206661696C7D
:1005C0006564212074696D656F75740A004531207A
:1005D000544845524D414C2052554E4157415900C7
:1005E000546865726D616C2052756E617761790037
:1005F00045312048656174696E67206661696C6584
:10060000640048656174696E67206661696C656441
:1006100000504944204175746F74756E65206661A1
:10062000696C6564212054656D70657261747572C2
:100630006520746F6F20686967680A00204B643A10
:100640002000204B693A2000204B703A20000A20FD
:10065000436C617373696320504944200A0020543D
:10066000753A2000204B753A2000206D61783A20C1
:1006700000206D696E3A200020643A2000206269F3
:1006800061733A2000504944204175746F74756E4F
:1006900065206661696C656421204261642065782B
:1006A000747275646572206E756D6265720A0050B1
:1006B0004944204175746F74756E6520737461725E
:1006C000740A004E6F2063617365206C69676874FB
:1006D0000A00454550524F4D204F4B0A003A20002A
:1006E00050726F6265205A204F6666736574003FD2
:1006F0005A206F7574206F662072616E67652028BE
:100700002D323020746F203230290A004163746921
:1007100076652045787472756465723A2000496E7A
:1007200076616C69642065787472756465720A001C
:100730004E6F20436865636B73756D2077697468CD
:10074000206C696E65206E756D6265722C204C613F
:100750007374204C696E653A20004B494C4C4544FB
:100760002E200053544F505045442E2000507269A3
:100770006E7465722073746F707065642064756543
:1007800020746F206572726F72732E204669782014
:10079000746865206572726F7220616E6420757373
:1007A00065204D39393920746F2072657374617218
:1007B000742E202854656D706572617475726520A1
:1007C00069732072657365742E2053657420697493
:1007D0002061667465722072657374617274696EEB
:1007E00067290A004E6F20436865636B73756D203F
:1007F00077697468206C696E65206E756D626572CC
:100800002C204C617374204C696E653A200063683B
:1008100065636B73756D206D69736D617463682CAE
:10082000204C617374204C696E653A20004C696EEF
:1008300065204E756D626572206973206E6F74203D
:100840004C617374204C696E65204E756D626572E3
:100850002B312C204C617374204C696E653A20005A
:100860004D313130004D33310053442072656164A5
:10087000206572726F720A00446F6E652070726933
:100880006E74696E672066696C650A0020496E7631
:10089000616C69642065787472756465722000000B
:1008A00000000000000000000000000000484300BD
:1008B0000048430000484342696C696E65617220DC
:1008C0004C6576656C696E6720477269643A0A0008
:1008D000486F6D696E67206661696C65640050726F
:1008E0006F62696E67206661696C65640A005072A8
:1008F0006F62696E67206661696C656400205A3AB0
:10090000200020593A200042656420583A200048CF
:100910006F6D652025732573257320666972737466
:10092000002066697273740A005A00590058004822
:100930006F6D65200024F4D43050C38E20C2A240D5
:1009400017828B7011127A910D816CD90AA861E11E
:1009500008C7586607615143061E4B5D05C145A790
:10096000041A411104093D9803713931034036DB03
:100970000265339102D4305402802E1D02632CEEA6
:1009800001752AC501B028A001102781018F2564B7
:10099000012B244B01E0223401AC211F018D200DDD
:1009A00001801FFC00841EED00971DDF00B81CD2E3
:1009B00000E61BC600201BBC00641AB200B219A8D6
:1009C000000A19A0006A189900D117910040178BEE
:1009D00000B516840031167E00B31579003A157300
:1009E00000C7146F0058146A00EE13660088136382
:1009F0000025135E00C7125B006C125700151254DD
:100A000000C111510070114F0021114B00D6104947
:100A1000008D1047004610440002104200C00F40F5
:100A200000800F3E00420F3C00060F3B00CB0E380B
:100A300000930E37005C0E3500270E3400F30D32A4
:100A400000C10D3100900D3000600D2E00320D2DD3
:100A500000050D2C00D90C2B00AE0C2900850C29AB
:100A6000005C0C2700350C27000E0C2600E80B2438
:100A700000C40B2400A00B23007D0B23005A0B2184
:100A800000390B2100180B2000F80A1F00D90A1E9C
:100A900000BB0A1E009D0A1D00800A1D00630A1C7F
:100AA00000470A1B002C0A1B00110A1A00F7091A3A
:100AB00000DD091900C4091900AB091900920917D2
:100AC000007B091800630917004C09160036091647
:100AD00000200916000A091500F5081500E00814A1
:100AE00000CC081400B8081400A4081400900813DF
:100AF000007D0812006B0813005808120046081207
:100B00000034081100230811001208110001081117
:100B100000F0071000E0071000D0071000C0071019
:100B200000B0070F00A107100091070E0083070F08
:100B30000074070F0065070E0057070E0049070EE7
:100B4000003B070D002E070E0020070D0013070DB8
:100B50000006070D00F9060C00ED060D00E0060C7E
:100B600000D4060C00C8060C00BC060C00B0060C35
:100B700000A4060B0099060C008D060B0082060BE4
:100B80000077060B006C060B0061060A0057060B87
:100B9000004C060A0042060A0038060A002E060A21
:100BA0000024060A001A060A001006090007060AB1
:100BB00000FD050900F4050900EB050900E205093F
:100BC00000D9050900D0050900C7050900BE0509BF
:100BD00000B5050800AD050800A50509009C05083D
:100BE00000940508008C050800840508007C0508B1
:100BF00000740508006C050700650508005D050721
:100C000000560508004E0507004705070040050887
:100C10000038050700310507002A050700230507EE
:100C2000001C050600160507000F0507000805064D
:100C30000002050700FB040600F5040700EE0406A9
:100C400000E8040600E2040700DB040600D5040601
:100C500000CF040600C9040600C3040600BD040654
:100C600000B7040600B1040500AC040600A60406A3
:100C700000A00405009B04060095040500900406EE
:100C8000008A04050085040500800406007A040536
:100C90000075040500700405006B0405006604057A
:100CA00000610405005C04050057040500520405BA
:100CB000004D04050048040500430405003E0404FB
:100CC000003A04050035040500300404002C040536
:100CD0000027040400230405001E0404001A040471
:100CE0000016040500110404000D040400090405A5
:100CF000000404040000040400FC030400F80304DE
:100D000000F4030400F0030400EC030400E803040F
:100D100000E4030400E0030400DC030400D803043F
:100D200000D4030400D0030400CC030400C8030370
:100D300000C503030024F404D9201BC40C5C0E98E6
:100D400004C4095F0265077101F405F900FB04B3EF
:100D50000048048700C10369005803550003034598
:100D600000BE023A008402310053022A0029022503
:100D70000004022000E4011C00C8011900AF0117A3
:100D8000009801140084011300710110006101102A
:100D90000051010E0043010D0036010B002B010B29
:100DA0000020010B00150109000C010900030108D6
:100DB00000FB000800F3000800EB000700E4000659
:100DC00000DE000600D8000600D2000600CC0005B8
:100DD00000C7000500C2000500BD000400B9000402
:100DE00000B5000400B1000400AD000400A9000437
:100DF00000A5000300A20003009F0004009B000365
:100E00000098000300950002009300030090000387
:100E1000008D0002008B00030088000200860002A3
:100E20000084000300810002007F0002007D0002B8
:100E3000007B0002007900020077000100760002CA
:100E4000007400020072000100710002006F0002D5
:100E5000006D0001006C0002006A000100690002E0
:100E600000670001006600010065000100640002E7
:100E7000006200010061000100600001005F0002EB
:100E8000005D0001005C0001005B0001005A0001F0
:100E900000590001005800010057000100560001F0
:100EA00000550001005400010053000000530001F0
:100EB000005200010051000100500001004F0001EC
:100EC000004E0000004E0001004D0001004C0001EA
:100ED000004B0000004B0001004A000100490001E6
:100EE00000480000004800010047000100460000E3
:100EF00000460001004500000045000100440001DB
:100F000000430000004300010042000000420001D5
:100F1000004100000041000100400001003F0000CE
:100F2000003F0001003E0000003E0001003D0000C7
:100F3000003D0001003C0000003C0000003C0001BE
:100F4000003B0000003B0001003A0000003A0001B5
:100F500000390000003900010038000000380000AE
:100F600000380001003700000037000100360000A3
:100F7000003600000036000100350000003500009A
:100F8000003500010034000000340000003400018E
:100F90000033000000330000003300010032000085
:100FA000003200000032000100310000003100007A
:100FB000003100010030000000300000003000016E
:100FC000002F0000002F0000002F0000002F000164
:100FD000002E0000002E0000002E0001002D000059
:100FE000002D0000002D0000002D0001002C00004D
:100FF000002C0000002C0000002C0001002B000041
:10100000002B0000002B0000002B0001002A000034
:10101000002A0000002A0000002A00010029000028
:10102000002900000029000000290000002900011B
:101030000028000000280000002800000028000010
:101040000028000100270000002700000027000002
:1010500000270000002700010026000000260000F5
:1010600000260000002600000026000100250000E8
:1010700000250000002500000025000000250000DC
:1010800000250001002400000024000000240000CE
:1010900000240000002400010023000000230000C1
:1010A00000230000002300000023000000230000B4
:1010B00000230001002200000022000000220000A6
:1010C0000022000000220000002200010021000098
:1010D000002100000021000000210000002100008C
:1010E000002100000021000100200000002000007D
:1010F0000020000000200000002000000020000070
:101100000020000000200001001F0000001F000060
:10111000001F0000001F0000001F0000001F000053
:10112000001F0001001E0000001E0000001E000045
:10113000001E000000043700001E290000511B00A3
:10114000005810000010090000CC040000780200D4
:1011500000410100006265640A002C2073797374F9
:10116000656D2073746F70706564212048656174CB
:1011700065725F49443A20004578747275646572FF
:10118000004D6F7665205A004D6F76652059004DF1
:101190006F76652058005072657061726500496E07
:1011A000697469616C697A6520454550524F4D00FC
:1011B000436F6E74726F6C00526573746F7265204A
:1011C0006661696C73616665004C6F61642073656C
:1011D0007474696E677300496E697469616C697AC9
:1011E0006520454550524F4D0053746F7265207312
:1011F000657474696E67730046696C616D656E74C1
:10120000004D6F74696F6E0054656D706572617426
:10121000757265004D61696E005072656865617434
:101220002041425320636F6E6600507265686561AD
:101230007420504C4120636F6E66005049442D4429
:10124000005049442D44005049442D490050494420
:101250002D49005049442D50005049442D50002044
:1012600002204661637400200220466163740020FE
:1012700002204D6178002002204D6178002002207C
:101280004D6178002002204D696E002002204D69DA
:101290006E002002204D696E004F6666004F6E2082
:1012A000004175746F74656D700046616E207370D7
:1012B00065656420330046616E2073706565642047
:1012C000330046616E2073706565642033004661AB
:1012D0006E20737065656420320046616E20737005
:1012E00065656420320046616E2073706565642018
:1012F000320042656400426564004E6F7A7A6C6524
:10130000004E6F7A7A6C6500436F6E74726F6C007A
:1013100053746F72652073657474696E67730042ED
:1013200065640042656400426564004E6F7A7A6CC1
:1013300065004E6F7A7A6C65004E6F7A7A6C650044
:1013400046616E2073706565640046616E2073703F
:101350006565640046616E20737065656400546560
:101360006D70657261747572650000002100240063
:1013700027002A002D003000330001010000040185
:1013800007010A0100002200250028002B002E0082
:101390003100340002010000050108010B010000CA
:1013A00020002300260029002C002F00320000011D
:1013B00000000301060109010505050507050808E8
:1013C0000808020202020A0A0808040404040101CF
:1013D00001010101010103030303030303030407E4
:1013E00007070C0C0C0C0C0C0C0C0202020206067B
:1013F0000606060606060B0B0B0B0B0B0B0B070763
:101400000A0A0A0A0A0A0505050404040808010272
:101410001020200808102040102040800201020106
:1014200008040201010204081020408080402010BE
:101430000804020180040201804020100804020117
:10144000080402010102040810204080010204087F
:1014500010204080100804088010204004408010B4
:101460002040048000000A0B02090C0D0E0807033F
:101470000401000000000000000000000000000067
:10148000000000000000000000000000000000005C
:101490001211100000000000000000000000000019
:1014A000000000000000000000000000000000003C
:1014B000000000000000000000004B494C4C454477
:1014C0002E2000202D20496E76616C69642065789D
:1014D000747275646572206E756D62657220210A82
:1014E00000001C1F11111F00000006191803130C27
:1014F00000040E1F041C000000000E1315110E0046
:10150000001C10181705060500040A0A0A0A111122
:101510000E0C12120C00000000001F1511151F0008
:10152000002D2D2D2D2D2D007C4D61726C696E7C52
:10153000002D2D2D2D2D2D00687474703A2F2F6DD8
:1015400061726C696E66772E6F7267006874747072
:101550003A2F2F6D61726C696E66772E6F7267001D
:1015600020312E312E39002020506C616E6E657254
:1015700042756666657242797465733A200020464A
:10158000726565204D656D6F72793A2000436F6D0D
:1015900070696C65643A20536570202033203230C6
:1015A00031380A00207C20417574686F723A202817
:1015B0006E6F6E652C2064656661756C7420636F58
:1015C0006E666967290A00323031382D30382D3087
:1015D0003100204C61737420557064617465643A05
:1015E0002000312E312E390A004D61726C696E0077
:1015F00020536F6674776172652052657365740A53
:1016000000205761746368646F6720526573657466
:101610000A002042726F776E206F757420526573D6
:1016200065740A002045787465726E616C2052659D
:101630007365740A00506F77657255700A00737491
:101640006172740A006175746F25692E6700657296
:10165000726F722077726974696E6720746F20668A
:10166000696C650A00456E6473746F70732025633E
:1016700020256320256320256300205A3A00205945
:101680003A0020583A00656E6473746F7073206876
:1016900069743A2000446F6E6520736176696E67E5
:1016A0002066696C652E0A004D323900290A002037
:1016B00062797465733B20637263200053657474B0
:1016C000696E67732053746F726564202800290A5D
:1016D000002062797465733B20637263200020737D
:1016E000746F7265642073657474696E67732072B9
:1016F0006574726965766564202800202863616CD2
:1017000063756C6174656429210A0020213D200005
:10171000454550524F4D20435243206D69736D61D2
:10172000746368202D202873746F7265642920000B
:101730002053697A653A2000496E6465783A200042
:10174000204D61726C696E3D563535290A00284579
:101750004550524F4D3D00454550524F4D20766506
:101760007273696F6E206D69736D617463682000B8
:10177000436172642072656D6F76656400436172C7
:101780006420696E73657274656400000000000176
:101790000204040000001C1C0C04040402010000EC
:1017A0000000000408100000000000203D203078F8
:1017B0000025753A2530327500253032753A2530CE
:1017C0003275002D2D2D0053440020202020202094
:1017D000002020202000536C6565702E2E2E0020E6
:1017E0002844525952554E290047323920417574C8
:1017F0006F20426564204C6576656C696E67003FBA
:1018000020284C2C522C462C4229206F7574206FB6
:101810006620626F756E64732E0A003F2856296534
:1018200072626F7365206C6576656C2069732069E0
:101830006D706C61757369626C652028302D342978
:101840002E0A00426164205A2076616C75650A0098
:101850004E6F2062696C696E65617220677269649F
:101860000A00205A3A200020593A2000426564209C
:10187000583A200046696C652064656C657465643F
:101880003A0044656C6574696F6E206661696C65C9
:10189000642C2046696C653A200050726F74656351
:1018A0007465642050696E0A00205A3A0020593A43
:1018B0000020436F756E7420583A0020453A00208E
:1018C0005A3A0020593A00583A00507265686561EA
:1018D0007420504C4120456E64005072656865610B
:1018E0007420504C41204265640050726568656107
:1018F0007420504C410050726570617265005072E6
:1019000065686561742041425320456E64005072E1
:1019100065686561742041425320426564005072DD
:101920006568656174204142530050726570617250
:1019300065004D343238005072656865617420501E
:101940004C4100436F6F6C646F776E005072656836
:10195000656174204142530044697361626C652083
:101960007374657070657273004D3834005365741C
:1019700020686F6D65206F666673657473004F66CF
:1019800066004F6E2000426564204C6576656C6988
:101990006E67004C6576656C20626564004732387E
:1019A0000A473239004175746F20686F6D650047D2
:1019B0003238004D6F76652061786973004D61693A
:1019C0006E004D6F76652058004D6F76652059008A
:1019D0004D6F7665205A00457874727564657200A3
:1019E0004D6F766520302E316D6D004D6F76652020
:1019F000316D6D004D6F76652031306D6D004D6F2E
:101A000076652061786973004578747275646572D3
:101A1000004D6F7665205A004D6F76652059004D58
:101A20006F766520580020746F6F206C6F6E672092
:101A3000657874727573696F6E2070726576656E05
:101A40007465640A0020636F6C6420657874727535
:101A500073696F6E2070726576656E7465640A00D6
:101A6000627573793A2070617573656420666F7270
:101A700020696E7075740A00627573793A2070611E
:101A80007573656420666F7220757365720A0062F3
:101A90007573793A2070726F63657373696E670A44
:101AA000004B494C4C45442E20004B494C4C206384
:101AB0006175736564206279204B494C4C206275D6
:101AC00074746F6E2F70696E0A004B494C4C45441C
:101AD0002E20004B494C4C20636175736564206275
:101AE0007920746F6F206D75636820696E6163740F
:101AF0006976652074696D65202D20637572726545
:101B00006E7420636F6D6D616E643A2000506C6579
:101B1000617365207265736574005052494E544577
:101B2000522048414C544544005072696E746572AD
:101B30002068616C7465642E206B696C6C282920A8
:101B400063616C6C6564210A002064726976657259
:101B50002063757272656E743A2000656E717565EA
:101B60007565696E67202200000020C00000A0C0DB
:101B70000000000000004842000048420000804091
:101B8000000000005761726E696E673A20486F6D01
:101B9000696E672042756D702044697669736F7253
:101BA000203C20310A000202040000A0400000A0F6
:101BB0004000000040000048430000484300004847
:101BC00043FFFFFF3A004361703A00544845524DCD
:101BD000414C5F50524F54454354494F4E0041557C
:101BE000544F5245504F52545F53445F53544154E5
:101BF000555300454D455247454E43595F5041525C
:101C000053455200434153455F4C494748545F4256
:101C100052494748544E45535300544F47474C454B
:101C20005F4C494748545300534F4654574152451F
:101C30005F504F574552004255494C445F50455202
:101C400043454E54004C4556454C494E475F444130
:101C50005441005A5F50524F4245004155544F4C39
:101C60004556454C005052494E545F4A4F42005031
:101C7000524F4752455353004155544F5245504FD0
:101C800052545F54454D5000564F4C554D4554529B
:101C9000494300454550524F4D0053455249414C30
:101CA0005F584F4E5F584F4646004649524D574188
:101CB00052455F4E414D453A4D61726C696E20311F
:101CC0002E312E3920284769746875622920534FB8
:101CD000555243455F434F44455F55524C3A6874F3
:101CE0007470733A2F2F6769746875622E636F6D15
:101CF0002F4D61726C696E4669726D776172652FE6
:101D00004D61726C696E2050524F544F434F4C5F7F
:101D100056455253494F4E3A312E30204D4143489B
:101D2000494E455F545950453A3344205072696ECC
:101D30007465722045585452554445525F434F557F
:101D40004E543A3120555549443A636564653261D1
:101D500032662D343161322D343734382D396231C9
:101D6000322D6335356336326633363766660A00A0
:101D70002F2F2000426564204C6576656C696E6784
:101D800020004661696C656420746F20656E616235
:101D90006C6520426564204C6576656C696E670AE7
:101DA000004D65736820706F696E742063616E6E9C
:101DB0006F74206265207265736F6C7665640A00CB
:101DC0004D34323120696E636F72726563742070B6
:101DD0006172616D657465722075736167650A0073
:101DE000617869733A70776D5F7363616C65207CAD
:101DF0007374617475735F726573706F6E73657CF5
:101E00000A00447269766572207265676973746549
:101E100072733A00733276736209007332767361BB
:101E20000900313230430900313433430900313580
:101E3000304309003135374309006F7409006F746E
:101E400070770900733267610900733267620900B5
:101E50006F6C6109006F6C62090073747374090020
:101E6000445256535441545553005374616C6C673B
:101E7000756172642074687273002D73746172747A
:101E80000900687973746572657369730A2D656EEC
:101E9000640900626C616E6B2074696D65006F6629
:101EA000662074696D6509004F5420707265776112
:101EB000726E206861730A6265656E20747269676C
:101EC0006765726564004F54207072657761726E49
:101ED000005B6D6D2F735D090070776D0A74687219
:101EE0006573686F6C640900747374657009006DC4
:101EF00073746570730900737465616C746843680A
:101F00006F70007673656E7365090050574D2073CE
:101F100063616C65090043532061637475616C09EA
:101F200000486F6C642063757272656E7400527540
:101F30006E2063757272656E74004D415820637532
:101F40007272656E7400524D532063757272656EC5
:101F500074005365742063757272656E7400456E0B
:101F600061626C65640900090020746F6F206C6FFA
:101F70006E6720657874727573696F6E2070726514
:101F800076656E7465640A0020636F6C6420657802
:101F900074727573696F6E2070726576656E7465A4
:101FA000640A0043616E6E6F74206F70656E2073FB
:101FB000756264697220006563686F3A006F7065CE
:101FC0006E206661696C65642C2046696C653A20F8
:101FD0000053442063617264206F6B0A006F706568
:101FE0006E526F6F74206661696C65640A00766F6B
:101FF0006C756D652E696E6974206661696C6564C7
:102000000A00534420696E6974206661696C0A0095
:1020100057726974696E6720746F2066696C653ADF
:1020200020006F70656E206661696C65642C2046C7
:10203000696C653A20006F70656E206661696C6539
:10204000642C2046696C653A200046696C652073F3
:10205000656C65637465640A002053697A653A208B
:102060000046696C65206F70656E65643A200020DB
:1020700066696C653A2000646F696E670066726518
:102080007368004E6F772000454E442053554252EE
:102090004F5554494E450A002220706F730022208C
:1020A000706172656E743A2200535542524F555416
:1020B000494E452043414C4C207461726765743A27
:1020C00022004B494C4C45442E2000747279696EB5
:1020D0006720746F2063616C6C207375622D676379
:1020E0006F64652066696C65732077697468207415
:1020F0006F6F206D616E79206C6576656C732E2034
:102100004D4158206C6576656C2069733A004572C4
:10211000726F723A005654726176206D696E005685
:1021200054726176206D696E005654726176206D2E
:10213000696E00566D696E00566D696E00566D6968
:102140006E00566D6178204500566D61782045001F
:10215000566D6178204500566D6178205A00566DA5
:102160006178205A00566D6178205A00566D61786A
:10217000205900566D6178205900566D61782059BC
:1021800000566D6178205800566D617820580056D1
:102190006D61782058004D6F74696F6E00416D61FC
:1021A00078204500416D6178204500416D617820BF
:1021B0005A00416D6178205A00416D6178205900C4
:1021C000416D6178205900416D6178205800416D62
:1021D0006178205800412D74726176656C00412D44
:1021E00074726176656C00412D72657472616374FE
:1021F00000412D7265747261637400416363656CA4
:1022000000416363656C004D6F74696F6E005665C5
:102210002D6A65726B0056652D6A65726B00566596
:102220002D6A65726B00567A2D6A65726B00567A5C
:102230002D6A65726B0056792D6A65726B0056794E
:102240002D6A65726B0056792D6A65726B0056783F
:102250002D6A65726B0056782D6A65726B00567830
:102260002D6A65726B004D6F74696F6E00457374F3
:102270006570732F6D6D004573746570732F6D6D90
:10228000005A73746570732F6D6D005A73746570A6
:10229000732F6D6D005973746570732F6D6D0059D8
:1022A00073746570732F6D6D005873746570732F40
:1022B0006D6D005873746570732F6D6D004D6F7484
:1022C000696F6E0053746570732F6D6D004A65728F
:1022D0006B00416363656C65726174696F6E005673
:1022E000656C6F636974790050726F6265205A2063
:1022F0004F66667365740050726F6265205A204F96
:10230000666673657400436F6E74726F6C00466925
:102310006C2E204469612E0046696C2E2044696150
:102320002E004F6666004F6E20004520696E206DBE
:102330006D3300436F6E74726F6C0043616E6E6F2D
:102340007420656E746572207375626469723A20D8
:1023500000052E2E004D61696E007C3C3E5E2B3DDB
:102360003F2F5B5D3B2C2A225C0045340045330047
:102370004532004531004530005A3200593200588C
:1023800032005A0059005800426564206865617443
:10239000696E67206661696C65640048656174698F
:1023A0006E67206661696C6564004531204865612F
:1023B00074696E67206661696C6564004865617464
:1023C000696E67206661696C65640070012C01901C
:1023D000012701B0012201C0011D01F00118011007
:1023E00002130130020E016002090190020401C0D3
:1023F00002FF000003FA004003F5008003F000D064
:1024000003EB002004E6007004E100E004DC00407F
:1024100005D700C005D2004006CD00D006C8008018
:1024200007C3003008BE00F008B900C009B400B00E
:102430000AAF00B00BAA00D00CA500000EA00050FF
:102440000F9B00C01096005012910000148C00C029
:10245000158700B0178200B0197D00D01B780000EE
:102460001E730040206E0090226900F0246400403A
:10247000275F0090295A00E02B5500102E500020B5
:10248000304B0010324600E033410090353C0010E4
:1024900037370070383200A0392D00B03A2800A03C
:1024A0003B2300603C1E00103D1900903D140010BD
:1024B0003E0F00703E0A00C03E0500003F00004095
:1024C0003FFBFF803FF6FFC03FF1FF4531205448FE
:1024D00045524D414C2052554E41574159004245BD
:1024E0004420544845524D414C2052554E4157418D
:1024F0005900546865726D616C2052756E61776128
:1025000079004531204572723A204D415854454D6D
:1025100050004572723A204D415854454D5020426A
:102520004544004D415854454D50207472696767C9
:1025300065726564004531204572723A204D494EFE
:1025400054454D50004572723A204D494E54454D08
:102550005020424544004D494E54454D5020747220
:1025600069676765726564004D38342058205920CA
:102570005A204500202F002042403A0020403A00D7
:102580008623842382237F237C237923762373234A
:1025900070236D236A23747275650066616C7365C0
:1025A000002074656D70657261747572652070725B
:1025B000657761726E207472696767657265643AE7
:1025C0002000207072657761726E20666C616720F2
:1025D000636C65617265640A0048617264636F646C
:1025E00065642044656661756C7420536574746914
:1025F0006E6773204C6F616465640A00B80B00005D
:10260000B80B000064000000102700000000964393
:10261000000096430000A0400000C8410000C842EE
:102620000000C8420000C8430000BA4220204D39D3
:102630003036003A0A0020286D6D290020543020E1
:102640004500205A002059002058005374657070CE
:102650006572206472697665722063757272656E48
:10266000743A0A0020204D383531205A005A2D5036
:10267000726F6265204F66667365740020440020A7
:10268000490020204D333031205000504944207300
:10269000657474696E67733A0A0020460020420030
:1026A00020480020204D3134352053004D617465A1
:1026B0007269616C20686561747570207061726107
:1026C0006D65746572733A0A00205A00204A002032
:1026D00020473239205720490020204D3432302005
:1026E00053004175746F20426564204C6576656CBB
:1026F000696E673A0A00205A0020590020204D32A6
:102700003036205800486F6D65206F6666736574BB
:102710003A0A00204500205A002059002058002085
:10272000540020530020204D3230352042002045F7
:102730003C6D61785F655F6A65726B3E0020583C56
:102740006D61785F785F6A65726B3E20593C6D61A0
:10275000785F795F6A65726B3E205A3C6D61785F85
:102760007A5F6A65726B3E00416476616E63656490
:102770003A20423C6D696E5F7365676D656E745F8C
:1027800074696D655F75733E20533C6D696E5F665D
:10279000656564726174653E20543C6D696E5F745A
:1027A000726176656C5F66656564726174653E0032
:1027B00020540020520020204D323034205000415F
:1027C0006363656C65726174696F6E2028756E69EC
:1027D00074732F7332293A20503C7072696E745FA3
:1027E000616363656C3E20523C7265747261637410
:1027F0005F616363656C3E20543C74726176656C06
:102800005F616363656C3E0A00204500205A00202A
:10281000590020204D3230312058004D6178696DCB
:10282000756D20416363656C65726174696F6E20BC
:1028300028756E6974732F7332293A0A0020450097
:10284000205A0020590020204D3230332058004DAE
:102850006178696D756D2066656564726174657314
:102860002028756E6974732F73293A0A0020450079
:10287000205A0020590020204D393220580053742E
:102880006570732070657220756E69743A0A002055
:10289000204D3230302044300A0020204D3230307C
:1028A0002044002044697361626C65640A004669D3
:1028B0006C616D656E742073657474696E67733ACC
:1028C0000020204D3134392043203B20556E69745F
:1028D0007320696E2043656C736975730A0020204C
:1028E000473231202020203B0074727565006661FC
:1028F0006C736500747275650066616C7365007455
:102900007275650066616C736500313D2E3138006B
:10291000303D2E333235002F3331002F3331002F2D
:10292000333100747275650066616C7365004572C1
:10293000726F722077726974696E6720746F2045B8
:102940004550524F4D210A00454550524F4D20648D
:1029500061746173697A65206572726F722E0A0004
:102960003344205072696E746572205265616479D7
:102970002E005072696E74696E672E2E2E00507292
:10298000696E7420706175736564005072696E744D
:102990002061626F72746564005072696E742066A3
:1029A000726F6D2053440053746F70207072696EA3
:1029B0007400526573756D65207072696E74004E97
:1029C0006F20534420636172640050617573652009
:1029D0007072696E7400436F6E74726F6C00507227
:1029E00065706172650054756E6500496E666F2092
:1029F00073637265656E00466C6F7700466C6F7727
:102A00000046616E20737065656420330046616E18
:102A100020737065656420330046616E20737065B5
:102A2000656420330046616E2073706565642032F2
:102A30000046616E20737065656420320046616EE9
:102A400020737065656420320042656400426564ED
:102A5000004E6F7A7A6C65004E6F7A7A6C6500531F
:102A600070656564005370656564005370656564E6
:102A7000004D61696E004D3234004D3233202573B4
:102A800000556E6B6E6F776E20636F6D6D616E6457
:102A90003A202200526573656E643A20006F6B0025
:102AA00034F803F811241FBECFEFD1E2DEBFCDBF53
:102AB00000E00CBF13E0A0E0B2E0E6EDF1E102E0DF
:102AC0000BBF02C007900D92A437B107D9F725E1DB
:102AD000A4E7B3E001C01D92AC32B207E1F715E103
:102AE000C1E5D5E100E006C021970109802FFE0174
:102AF0000F941208C035D10780E00807A9F70E949B
:102B00006FF20D94DA080C9400002F923F924F92CE
:102B10005F926F927F928F929F92AF92BF92CF926D
:102B2000DF92EF92FF920F931F93CF93DF93CDB776
:102B3000DEB7C559D1090FB6F894DEBF0FBECDBFC1
:102B400021E020935B0C80916B148D3409F4A8C7AD
:102B5000843511F40C945F2E873411F00C94AB2E55
:102B60008091691490916A148C31910509F439C6E9
:102B70008CF48430910534F48230910594F597FFFC
:102B800029C08AC78430910509F4FBC54B9709F425
:102B9000FCC582C78A32910509F42BC65CF48D31DD
:102BA000910509F422C64E9709F076C70E94C681A6
:102BB0000C94AD2E8B35910509F4F7C68C35910533
:102BC00009F4F7C68A35910509F066C710927803B3
:102BD0000C94AD2E80910E0281110C94B22E0C94A7
:102BE000AD2E20910E02222311F40C94AD2E11E093
:102BF000029709F010E00E94BE3A82E50E94B23AC4
:102C0000882309F44AC10E94383A6B017C01409044
:102C10001B0450901C0460901D0470901E042091B1
:102C20001F0430912004409121045091220428AFC8
:102C300039AF4AAF5BAF8091EA039091EB03A0916B
:102C4000EC03B091ED038CAF9DAFAEAFBFAF209161
:102C5000EE033091EF034091F0035091F103289679
:102C60002CAF3DAF4EAF5FAF289720E030E0A90119
:102C7000C701B6010F94F000882309F468C5A301C9
:102C800092016CAD7DAD8EAD9FAD0F94F0008111C2
:102C90000FC028AD39AD4AAD5BAD28966CAD7DADAA
:102CA0008EAD9FAD28970F94F000882309F44FC58F
:102CB00020E030E0A901C701B6010F94F000881FA1
:102CC0008827881F18130BC080E090E0A0E8BFE3BE
:102CD00064968CAF9DAFAEAFBFAF64970AC020E0E3
:102CE00030E040E85FEB64962CAF3DAF4EAF5FAF96
:102CF0006497A30192016CAD7DAD8EAD9FAD0F9435
:102D000006052C966CAF7DAF8EAF9FAF2C9728AD8C
:102D100039AD4AAD5BAD28966CAD7DAD8EAD9FAD46
:102D200028970F94060560966CAF7DAF8EAF9FAF6E
:102D300060972C962CAD3DAD4EAD5FAD2C97CA0182
:102D4000B9010F9455014B015C0160962CAD3DAD6E
:102D50004EAD5FAD6097CA01B9010F9455019B015B
:102D6000AC01C501B4010F9407050F9472072496B6
:102D70006CAF7DAF8EAF9FAF249720E030E040E096
:102D80005FE30F9455014B015C01A7019601C70158
:102D9000B6010F9455016B017C01A5019401C50199
:102DA000B4010F9455019B01AC01C701B6010F940A
:102DB00006050F9472079B01AC0164966CAD7DAD66
:102DC0008EAD9FAD64970F9455014B015C012CAD06
:102DD0003DAD4EAD5FADC301B2010F94070520E0DC
:102DE00030E040E05FE30F9455016B017C01609699
:102DF0006CAD7DAD8EAD9FAD6097905824962CAD97
:102E00003DAD4EAD5FAD24970F94E3059B01AC0142
:102E1000C501B4010F9455019B01AC01C701B60176
:102E20000F940705A30192010F9406056B017C0125
:102E300028962CAD3DAD4EAD5FAD289768AD79AD10
:102E40008AAD9BAD0F94070520E030E040E05FE3E2
:102E50000F9455012B013C0124962CAD3DAD4EAD98
:102E60005FAD24972C966CAD7DAD8EAD9FAD2C974C
:102E70000F94E3059B01AC01C501B4010F9455010A
:102E80009B01AC01C301B2010F94070528AD39AD18
:102E90004AAD5BAD0F94060514C089E40E94B23AB6
:102EA000882329F00E94383A6B017C0103C0C12CB1
:102EB000D12C76018AE40E94B23A8823F9F00E946C
:102EC000383A28966CAF7DAF8EAF9FAF289720E041
:102ED00030E0A901C701B6010F94F00081111EC0B6
:102EE00020E030E0A90128966CAD7DAD8EAD9FADA0
:102EF00028970F94F000811111C029C420E030E020
:102F0000A901C701B6010F94F000882309F41FC47A
:102F100028961CAE1DAE1EAE1FAE2897D701C60167
:102F2000B05888AF99AFAAAFBBAF28962CAD3DADD6
:102F30004EAD5FAD289750582CAF3DAF4EAF5FAF51
:102F40009C01AD01BC01CD010F9455014B015C0109
:102F50002CAD3DAD4EAD5FADCA01B9010F94550129
:102F60009B01AC01C501B4010F9407050F947207D2
:102F7000A0966CAF7DAF8EAF9FAFA09780911B04E2
:102F800090911C04A0911D04B0911E0424968CAF56
:102F90009DAFAEAFBFAF2497A7019601BC01CD0195
:102FA0000F94070564966CAF7DAF8EAF9FAF6497AB
:102FB00020911F043091200440912104509122045B
:102FC0002C962CAF3DAF4EAF5FAF2C9728962CAD13
:102FD0003DAD4EAD5FAD28972C966CAD7DAD8EAD01
:102FE0009FAD2C970F940705A4966CAF7DAF8EAF65
:102FF0009FAFA4978091EA039091EB03A091EC031B
:10300000B091ED0360968CAF9DAFAEAFBFAF609750
:1030100064962CAD3DAD4EAD5FAD6497BC01CD0166
:103020000F9406056B017C012091EE033091EF03B4
:103030004091F0035091F10368962CAF3DAF4EAF35
:103040005FAF6897A4962CAD3DAD4EAD5FADA49734
:1030500068966CAD7DAD8EAD9FAD68970F940605FB
:103060004B015C018091230490912404A0912504DC
:10307000B09126046C968CAF9DAFAEAFBFAF6C978E
:103080009C01AD016091F2037091F3038091F40310
:103090009091F5030F9406052B013C012091F60356
:1030A0003091F7034091F8035091F903AC962CAF9F
:1030B0003DAF4EAF5FAFAC9780912704909128044D
:1030C000A0912904B0912A04A8968CAF9DAFAEAF11
:1030D000BFAFA897A701960168AD79AD8AAD9BAD4A
:1030E0000F945501E0966CAF7DAF8EAF9FAFE09728
:1030F000A50194016CAD7DAD8EAD9FAD0F945501D2
:103100009B01AC01E0966CAD7DAD8EAD9FADE097BF
:103110000F940705E0966CAF7DAF8EAF9FAFE09741
:10312000A501940168AD79AD8AAD9BAD0F945501B1
:103130004B015C01A70196016CAD7DAD8EAD9FADDD
:103140000F9455019B01AC01C501B4010F94060514
:10315000E0962CAD3DAD4EAD5FADE0970F947A0596
:103160006B017C0120E030E0A9010F94F00087FFA3
:103170000AC02BED3FE049EC50E4C701B6010F94C3
:1031800007056B017C01112351F02BED3FE049EC69
:1031900050E4C701B6010F9406056B017C0120E0E5
:1031A00030E0A901C701B6010F94F000811128C0D9
:1031B00060962CAD3DAD4EAD5FAD609724966CAD85
:1031C0007DAD8EAD9FAD24970F94F000811118C096
:1031D00068962CAD3DAD4EAD5FAD68972C966CAD4D
:1031E0007DAD8EAD9FAD2C970F94F000811108C07E
:1031F0001BEDC12E1FE0D12E19ECE12E10E4F12EB3
:10320000A7019601A0966CAD7DAD8EAD9FADA09748
:103210000F9455014B015C0120E030E0A901C3018E
:10322000B2010F94F0008823C9F0A5019401C501F3
:10323000B4010F9455014B015C01A3019201C3013C
:10324000B2010F9455019B01AC01C501B4010F946B
:1032500007050F9472074B015C010DC020E030E0C0
:10326000A901C501B4010F942D0787FF04C0B7FA67
:10327000B094B7F8B0942FE632E143E85AE3C501C1
:10328000B4010F94F00087FF02C00C94AD2EC5016D
:10329000B4010F947C060F9450061B01672B19F4A0
:1032A00022242394312CB10180E090E00F94F400AB
:1032B0004B015C019B01AC01C701B6010F94E30512
:1032C00024966CAF7DAF8EAF9FAF2497A50194017C
:1032D000C301B2010F94E305A0966CAF7DAF8EAF32
:1032E0009FAFA097A8962CAD3DAD4EAD5FADA89712
:1032F000AC966CAD7DAD8EAD9FADAC970F940605D1
:10330000A50194010F94E305AC966CAF7DAF8EAF31
:103310009FAFAC9724962CAD3DAD4EAD5FAD2497DD
:10332000CA01B9010F94550120E030E040E05FE3AD
:103330000F9455019B01AC0160E070E080E89FE3D1
:103340000F94060568966CAF7DAF8EAF9FAF689700
:103350006C962CAD3DAD4EAD5FAD6C9729873A872D
:103360004B875C87A8968CAD9DADAEADBFADA897E1
:103370008D879E87AF87B88B609141027091420222
:10338000072E000C880B990B0F94F6002091040275
:103390003091050240910602509107020F945501A9
:1033A0002AE037ED43E25CE30F9455016CAB7DAB53
:1033B0008EAB9FAB0E94775C9B01AC0128533F4FC3
:1033C0004F4F5F4F6C962CAF3DAF4EAF5FAF6C97DA
:1033D00048AC59AC6AAC7BAC41E050E02E965FAF94
:1033E0004EAF2E9759E129965FAF29972E962EADB5
:1033F0003FAD2E972215330509F44EC10E94F7D137
:103400000E94775CDC01CB016C962CAD3DAD4EADDE
:103410005FAD6C97821B930BA40BB50BB7FD10C06F
:103420000E94775C9B01AC0128533F4F4F4F5F4F89
:103430006C962CAF3DAF4EAF5FAF6C970E94C891BA
:1034400029963FAD2997315029963FAF29973323CD
:1034500009F445C068962CAD3DAD4EAD5FAD6897A3
:103460006CAD7DAD8EAD9FAD0F9455016B017C01B0
:1034700024962CAD3DAD4EAD5FAD2497B201C30196
:103480000F945501A70196010F9407057B018C014C
:1034900068962CAD3DAD4EAD5FAD6897B201C301EE
:1034A0000F9455014B015C0124962CAD3DAD4EAD02
:1034B0005FAD24976CAD7DAD8EAD9FAD0F94550182
:1034C0009B01AC01C501B4010F9406052B013C0121
:1034D000C701D8018CAF9DAFAEAFBFAF5BC02E961A
:1034E0004EAD5FAD2E97BA0180E090E00F94F400EE
:1034F00024962CAD3DAD4EAD5FAD24970F94550194
:103500004B015C010F94E0056B017C01C501B40126
:103510000F9468074B015C01A701960168AD79AD76
:103520008AAD9BAD0F9455012B013C01A50194017F
:1035300028966CAD7DAD8EAD9FAD28970F9455014B
:103540009B01AC01C301B2010F9407052B013C01A3
:10355000A501940168AD79AD8AAD9BAD0F9455017D
:103560004B015C01A701960128966CAD7DAD8EAD37
:103570009FAD28970F9455019B01AC01C501B40183
:103580000F9406056CAF7DAF8EAF9FAF59E12996C2
:103590005FAF29979201A30164966CAD7DAD8EADAE
:1035A0009FAD64970F94070569837A838B839C830F
:1035B0002CAD3DAD4EAD5FADA4966CAD7DAD8EAD89
:1035C0009FADA4970F9407056D837E838F839887A3
:1035D000A0962CAD3DAD4EAD5FADA09769857A85C7
:1035E0008B859C850F94070569877A878B879C87D5
:1035F000AC962CAD3DAD4EAD5FADAC976D857E8587
:103600008F8598890F9407056D877E878F87988BA4
:1036100080913002882321F0CE0101960E94DD8E38
:10362000E09039141CA61DA61EA61FA689819A81AA
:10363000AB81BC8188A399A3AAA3BBA38D819E81E2
:10364000AF81B8858CA39DA3AEA3BFA389859A85BE
:10365000AB85BC8588A799A7AAA7BBA7AE01485D83
:103660005F4FBE016C5D7F4FCE0180960E943FE9A7
:10367000CE018C966C018E010C5C1F4F9E01235F66
:103680003F4FAE01485D5F4FBE016C5D7F4F0C97B1
:103690000E94539F811151C0E090391418AA19AAB1
:1036A0001AAA1BAA8091EA039091EB03A091EC0364
:1036B000B091ED0388A399A3AAA3BBA38091EE03C5
:1036C0009091EF03A091F003B091F1038CA39DA31F
:1036D000AEA3BFA38091F2039091F303A091F403F2
:1036E000B091F50388A799A7AAA7BBA7AE01485D2B
:1036F0005F4FBE016C5D7F4FCE0180960E943FE917
:10370000DE01D0966D018E010C5C1F4F26EF33E079
:10371000AE01485D5F4FBE016C5D7F4FCE0180966C
:103720000E94539F80E1EAEEF3E0ABE1B4E0019048
:103730000D928A95E1F70C94AD2E2E96EEADFFAD6D
:103740002E9731962E96FFAFEEAF2E974FCEEEE02E
:10375000F1E284918F010F5F1F4F882321F00E94B7
:103760004E3BF801F6CFEDE1F2E084918F010F5F5F
:103770001F4F882311F40C94AD2E0E944E3BF8018C
:10378000F4CF0E944C870C94AD2E0E940F43811100
:103790000C94AD2E80E090E0A0E4B0E489839A839D
:1037A000AB83BC838D839E83AF83B88780E090E03A
:1037B000A0EAB1E489879A87AB87BC8780E50E943D
:1037C000B23A882319F00E94083A01C060E068A369
:1037D000BE016F5F7F4FCE0180960E9479EB0C9403
:1037E000AD2E0E9400460C94AD2E0E94BC820C941B
:1037F000AD2E80910E02882311F40C94AD2E89E435
:103800000E94B23A182F882321F00E94083AE62E2F
:1038100001C0E12C8AE40E94B23A082F882331F0DB
:103820000E94083AF62E111104C00BC0F12C11238E
:10383000C1F032E03E1510F00C941F34E3E3F2E0E7
:1038400004C042E04F15D0F30CC084918F010F5F8C
:103850001F4F882311F40C94AD2E0E944E3BF801AB
:10386000F4CF0E94443B1123F1F02091440C30919D
:10387000450C5E2D5203B001539F700D11248091B1
:10388000EB0B9091EC0B680F791F072E000C880B47
:10389000990B0F94F6006093EA037093EB03809307
:1038A000EC039093ED030023F1F02091460C30914E
:1038B000470C4F2D4203B001439F700D11242091FE
:1038C000ED0B3091EE0B620F731F072E000C880B6F
:1038D000990B0F94F6006093EE037093EF038093BF
:1038E000F0039093F10380E50E94B23A8823E9F057
:1038F0000E94293A8823A9F11123D9F020E030E071
:1039000040E251E46091EA037091EB038091EC0393
:103910009091ED030F9406056093EA037093EB0317
:103920008093EC039093ED0304C080E50E946B3A12
:10393000E1CF0023B1F020E030E040E251E46091BB
:10394000EE037091EF038091F0039091F1030F94D7
:1039500006056093EE037093EF038093F00390935A
:10396000F10386E40E94B23A8823D9F00E94383AE3
:103970006B017C0120E030E0A9010F942D0718169F
:1039800084F420E030E040E752E4C701B6010F9430
:10399000E3056093040270930502809306029093FE
:1039A00007020E94E4940C94AD2E209378030C94AB
:1039B000AD2EFFE42F2EF2E03F2EAAE6CA2EACE099
:1039C000DA2EE12CF12C00E010E0D1018D911D01E7
:1039D0000E94B23A882309F44EC00E94383A2B0163
:1039E0003C01133059F0F701E550FC4F2081318143
:1039F000428153810F9406052B013C01F701E55EDE
:103A0000FB4F2081318142815381C301B2010F9468
:103A100006054B015C012DEB37E346E855EB0F94AF
:103A20002D0787FD0AC02DEB37E346E855E3C501B6
:103A3000B4010F94F0001816F4F4133051F44092CE
:103A40002704509228046092290470922A0401E00D
:103A500012C0A5019401F601608171818281938178
:103A60000F940705D6016D937D938D939C931397C7
:103A7000812F0E945C371F5FB4E0CB0ED11CE4E0C5
:103A8000EE0EF11C143009F0A0CF01110E94AD43DD
:103A90000E94E17E0C94AD2E0E9488E60C94AD2E1F
:103AA0008091691490916A148737910509F459C679
:103AB0000CF0E8C08D34910509F48EC40CF058C0A8
:103AC0008931910509F4D2C21CF58431910509F4BC
:103AD0005FC27CF48131910509F44FC22CF4029746
:103AE00008F4D3C10C945C2E429709F4E2C50C94FF
:103AF0005C2E8631910509F492C20CF48CC2873198
:103B0000910509F492C2489709F4A5C20C945C2E61
:103B10008E31910509F462C384F48B31910509F467
:103B2000B9C20CF4A9C28C31910509F44DC34D976B
:103B300011F40C94AD2E0C945C2E8A32910509F48C
:103B400043C44CF48F31910509F498C3809709F46C
:103B500049C30C945C2E8B34910509F439C48C3420
:103B6000910511F00C945C2E0E943B490C94AD2EF3
:103B70008B36910509F47CC50CF04EC08535910556
:103B800009F4CCC58CF58235910509F489C514F585
:103B90008135910511F00C945C2E0E9418D10E9481
:103BA000EAE81092341410923314109236141092E2
:103BB0003514109238141092371468EE73E080E0D8
:103BC00090E00E94477460E08BE793E00E94FD74F0
:103BD0000C94AD2E8335910509F466C584359105A5
:103BE00009F467C50C945C2E8836910509F4F8C376
:103BF0004CF48C35910511F00C945C2E0E94CE7F14
:103C00000C94AD2E8936910509F478C48A36910555
:103C100009F407C50C945C2E8037910509F43AC469
:103C200084F48D36910509F4ABC40CF42FC48E36A0
:103C3000910509F4D9C38F36910509F4D9C30C94C1
:103C40005C2E8337910509F484C57CF48137910596
:103C500009F428C48237910511F00C945C2E0E945F
:103C6000DAE80E94E17E0C94AD2E8537910509F4C7
:103C700074C58637910511F00C945C2E0E943B9E12
:103C80000C94AD2E8F32F1E09F0711F40C94A12912
:103C90000CF06CC08B3C910509F49AC674F581391F
:103CA000910509F4D3C58CF48937910509F4C8C589
:103CB0000CF4BFC58A37910511F40C94E12D8C38B2
:103CC000910509F479C40C945C2E8E3B910509F49E
:103CD00091C434F48B39910509F42BC40C945C2EF7
:103CE000883C910509F42CC6893C910511F00C948F
:103CF0005C2E0E94179E0C94AD2E8C3D910511F404
:103D00000C94DD279CF48D3C910509F4F7C60CF466
:103D10007DC68E3C910509F472C7833D910511F073
:103D20000C945C2EE7EBFFE10C94FF268C3231E023
:103D3000930711F40C94832864F48D3D910511F4DC
:103D40000C94EA27823E910511F40C9458280C94A7
:103D50005C2E8D3251E0950711F40C94AC288E3214
:103D6000914011F40C944D290C945C2E853FB1E0E8
:103D70009B0711F40C94462D0CF046C08A39F1E0F3
:103D80009F0709F48BC314F5803931E0930711F4D0
:103D90000C943A2D4CF48336914011F00C945C2E27
:103DA000EEE0F1E20C94232D8139A1E09A0711F4A1
:103DB0000C943D2D8239914011F00C945C2E80E0E2
:103DC0000E94BC360E94E17E0C94AD2E853AE1E063
:103DD0009E0711F40C94432D4CF4843A914011F059
:103DE0000C945C2E0E94469C0C94AD2E8C3A31E0D3
:103DF000930709F426C7843F914011F00C945C2E80
:103E00000E94C6690C94AD2E8A3853E0950711F4D0
:103E10000C94E42DB4F4873FB1E09B0711F40C94AB
:103E20004C2D14F40C94492D883FF1E09F0711F4B8
:103E30000C94582D8335934011F40C947B2D0C94E5
:103E40005C2E803933E0930711F40C94E72D7CF459
:103E50008B3853E0950711F40C94AD2E8F389340B6
:103E600011F00C945C2E0E94FB980C94AD2E803ABD
:103E7000B3E09B0709F4F5C1873E934011F00C9421
:103E80005C2E0E94E6980C94AD2EA0906714B09022
:103E9000681480E50E94B23A882359F00E94F839EC
:103EA0006B017C0111E0672B682B692B31F410E06A
:103EB00004C010E0C12CD12C760183E50E94B23AF7
:103EC000882311F40C94B72E0E94383A20E030E099
:103ED0004AE754E40F9455010F9450066B017C019E
:103EE00011110BC0672B682B692B39F4A114B10495
:103EF00021F0D5018C91811102C010E001C011E0C8
:103F00000E94DAE8112329F061E0C5010E943775AB
:103F100005C060E082E592E00E94FD7483E080933A
:103F20005B0C81E08093FE0BC114D104E104F10429
:103F3000E9F00E94775CC60ED71EE81EF91E0E94AB
:103F4000775CDC01CB018C199D09AE09BF09B7FD77
:103F500006C00E94C2E41092FE0B0C94AD2E80911C
:103F6000FE0B8823B1F30E94C891E9CF8091FE0B2C
:103F7000882379F30E94C891F9CF60E085E692E04A
:103F80000E94FD745F988A988C9812980C94AD2EBC
:103F9000EDE7F2E084918F010F5F1F4F882321F03E
:103FA0000E944E3BF801F6CF1092A40F40E050E083
:103FB000BA0187E59DE00E9472E08BE1E7E5FDE054
:103FC000DE01159601900D928A95E1F78091550DCD
:103FD0009091560D9C838B8387E193E09A8389832C
:103FE00040E050E0BE016F5F7F4F80E090E00E94B4
:103FF00024B0CE0101960E944991EEE6F2E0849150
:104000008F010F5F1F4F882311F40C94AD2E0E9477
:104010004E3BF801F4CF0E949BB50C94AD2E10924C
:10402000270D1092280D0C94AD2EE0916714F0919D
:1040300068148081882329F0803209F41082319637
:10404000F8CF40E061E080916714909168140E947D
:10405000ADB30C94AD2E8091280D882319F081E02A
:104060008093270D0E9402490C94AD2E1092270DCB
:104070000E943B490C94AD2E8091280D882311F4A9
:104080000C94AD2E83E50E94B23A81110C94BC2EA3
:104090000C94AD2E83E40E946B3A882309F454C03B
:1040A000EBEBF2E084918F010F5F1F4F882321F02B
:1040B0000E944E3BF801F6CF8091F20E882391F0DA
:1040C000BE016F5F7F4F8FEE9EE00E940DC68E0196
:1040D0000F5F1F4FF80181918F01882381F10E94AA
:1040E0004E3BF8CFEEE8F2E084918F010F5F1F4F57
:1040F000882329F10E944E3BF801F6CF8091950C60
:10410000882309F4B6C173E1C72E73E0D72EE12CE2
:10411000F12C20E08091950C90E00E2C02C095953A
:1041200087950A94E2F780FD8CC1FFEFEF1AFF0A32
:1041300032E0C30ED11C45E0E416F10459F78AE0E1
:104140000E944E3B0C94AD2E8091280D882371F176
:104150008091270D882351F1E8E9F2E084918F01E5
:104160000F5F1F4F882321F00E944E3BF801F6CFCE
:104170006091A00F7091A10F8091A20F9091A30F59
:104180004AE00E94E53D8FE20E944E3B60919C0F09
:1041900070919D0F80919E0F90919F0F4AE00E9419
:1041A000E53D8AE00E944E3B0C94AD2EEAEAF2E037
:1041B00084918F010F5F1F4F882311F40C94AD2E53
:1041C0000E944E3BF801F4CF40E060E0809167141C
:1041D000909168140E94ADB30C94AD2E0E9416818C
:1041E0000C94AD2E8091270D81110E94DAE8809108
:1041F000280D882311F40C94AD2E80E50E94B23A6C
:10420000882319F00E94293A03C080E50E946B3A86
:10421000182F482F61E080916714909168140E94D4
:10422000ADB383E50E94B23A882381F00E94083A38
:10423000AB01BC014093A00F5093A10F6093A20F5C
:104240007093A30F8FEE9EE00E9472E08091280D84
:10425000882319F081E08093270D11110C94AD2E65
:1042600001CF809167149091681421E02093260D6E
:1042700040E060E00E94ADB30C94AD2E0E94CE48A9
:10428000ECE3CE2ED12CE12CF12CA70196010F945A
:10429000CB04762E672ECA01B901A70196010F94AF
:1042A000CB046B017C01CA01B90128E130E040E098
:1042B00050E00F94CB044B015C01C9016DE671E045
:1042C0000F94CF078E010F5F1F4F6115710599F095
:1042D0006F927F92DF92CF929F928F929F938F9354
:1042E0007F936F9382EF92E09F938F931F930F932F
:1042F0000F94890012C00097B1F06F927F92DF9205
:10430000CF929F928F929F938F9382EE92E09F9392
:104310008F931F930F930F9489000FB6F894DEBF0D
:104320000FBECDBF36C081149104A104B10479F051
:104330006F927F92DF92CF929F928F9286ED92E062
:104340009F938F931F930F930F948900E6CFC1140F
:10435000D104E104F10469F06F927F92DF92CF9271
:104360008EEC92E09F938F931F930F930F9489008D
:10437000D4CF6F927F928AEC92E09F938F931F939A
:104380000F930F9489000F900F900F900F900F9044
:104390000F9060E0C8010E943775E7EBFFE1849160
:1043A0007F01BFEFEB1AFB0A882321F00E944E3BEE
:1043B000F701F5CFB80186E093E00E943C518AE016
:1043C0000E944E3B0C94AD2E0E94C2800C94AD2EE8
:1043D0000E9402490C94AD2E0E9450490C94AD2EBF
:1043E0000E947C800C94AD2E0E946C800C94AD2EAB
:1043F00083E50E946B3A882359F083E50E94B23A24
:10440000882319F00E94183A01C080E08093950C2F
:10441000E7EBFFE184918F010F5F1F4F882321F0AD
:104420000E944E3BF801F6CFE1E2F3E084918F0168
:104430000F5F1F4F882309F461CE0E944E3BF801A5
:10444000F5CFBB24B394B20E222319F08CE20E9464
:104450004E3BF60125913491F901849189010F5F5A
:104460001F4F882321F00E944E3B9801F5CF2B2D42
:104470005CCEEDE1F3E084918F010F5F1F4F882345
:1044800009F45DCE0E944E3BF801F5CF1092210257
:104490000C94AD2E88E293E00E9479910E94D99D00
:1044A0000C94AD2E83E50E94B23A882369F00E94F5
:1044B000183A8D3320F4809331020C94AD2E8CE3A6
:1044C000809331020C94AD2EE7EBFFE184918F01D4
:1044D0000F5F1F4F882321F00E944E3BF801F6CF5B
:1044E0004091310250E060E070E081E393E00E948F
:1044F000E9508AE00E944E3B0C94AD2E89E690E094
:104500000E944B3E811111C0E8E3F3E084918F01DA
:104510000F5F1F4F882321F00E944E3BF801F6CF1A
:104520000E9479CE8AE00E944E3B10925B0C0C9464
:10453000313483E50E94B23A882311F40C94AD2EF5
:104540000E94183A182F8D3308F01CE31093690C61
:104550000E94775C6B017C01212F30E0A8EEB3E074
:104560000F94F704C60ED71EE81EF91EC092650C04
:10457000D092660CE092670CF092680C0C94AD2E11
:104580008DE690E00E944B3E81110C94AD2E8091FF
:10459000950C83FF02C00C94AD2E83E50E94B23AC5
:1045A00088AF81110C94CD2E82E50E94B23A811120
:1045B0000C94CD2E0C94AD2E8091950C83FF02C0EF
:1045C0000C94AD2E83E50E94B23A882311F40C942A
:1045D000AD2E0E94383A0F944B066639710514F0DF
:1045E00066E970E07093301460932F140E9482D0BB
:1045F0000C94AD2E8091950C83FF02C00C94AD2ECF
:1046000083E50E94B23A61968FAF619781110C9455
:10461000863082E50E94B23A81110C9486300C9467
:10462000AD2E80E50E94B23A882341F00E94183AEC
:10463000182F833010F00C94AD2E01C010E083E5EC
:104640000E94B23A882319F00E94083A02C06FEF24
:1046500070E0E12FF0E06F3F710510F06FEF70E058
:10466000EE0FFF1FED5CFB4E718360830C94AD2E4B
:1046700080E50E94B23A882341F00E94083A6330F4
:10468000710510F00C94AD2E02C060E070E0660F72
:10469000771FFB01ED5CFB4E118210820C94AD2E56
:1046A000109277030C94AD2E81E0809377030C94E5
:1046B000AD2E83E50E94B23A8823A1F00E94383AD9
:1046C00020E030E04AE754E40F9455010F9450067F
:1046D00060933202709333028093340290933502D8
:1046E0000C94AD2E88E50E946B3A81110C944132F6
:1046F00089E50E946B3A81110C9441328AE50E944F
:104700006B3A81110C94413285E40E946B3A81111D
:104710000C9441320E94EAE80C94AD2E83E50E948D
:104720006B3A882311F40C94AD2E0E94383A20E0A5
:1047300030E04AE754E40F9455010F94500660931B
:10474000610C7093620C8093630C9093640C0C94D6
:10475000AD2E0E949A9E0C94AD2E0E948D9E0C94BC
:10476000AD2EE3EAF3E084918F010F5F1F4F8823A2
:1047700021F00E944E3BF801F6CFEBE9F3E0849183
:104780008F010F5F1F4F882321F00E944E3BF801DD
:10479000F6CF8091060181FF03C001E413E002C05F
:1047A00006E413E0D8018D918D01882319F00E9451
:1047B0004E3BF8CF8AE00E944E3BE3E9F3E0849160
:1047C0008F010F5F1F4F882321F00E944E3BF8019D
:1047D000F6CF8091030181FF03C001E413E002C022
:1047E00006E413E0F80181918F01882319F00E94FB
:1047F0004E3BF8CF8AE00E944E3BEBE8F3E0849119
:104800008F010F5F1F4F882321F00E944E3BF8015C
:10481000F6CF1E9B03C001E413E002C006E413E0E0
:10482000D8018D918D01882309F489CC0E944E3BDB
:10483000F7CF81E08093E8038093E9030C94AD2ED9
:104840001092E8031092E9030C94AD2E83E50E94C8
:10485000B23A882319F00E94083A02C060E070E082
:104860008B01112702301105D4F0EEE0F1E28491C2
:104870008F010F5F1F4F882321F00E944E3BF801EC
:10488000F6CFEDEBF3E084918F010F5F1F4F88238C
:1048900011F40C94AD2E0E944E3BF801F4CF88E445
:1048A0000E94B23A8823A9F00E94083A6A3A710538
:1048B0003CF06530B1E07B072CF064E071E002C0B1
:1048C0006AEA70E0F801EE0FFF1FED51F64F7183B9
:1048D000608386E40E94B23A8823A9F00E94083AD5
:1048E000F801EE0FFF1FE951F64F718360836F3FB0
:1048F000710519F014F06FEF70E077FF02C060E00F
:1049000070E07183608382E40E94B23A882311F4DC
:104910000C94AD2E0E94083A6530710534F0683869
:1049200071052CF067E870E002C065E070E0000FF0
:10493000111FF801E152F64F718360830C94AD2E84
:1049400088EC90E00E944B3E81110C94AD2E84E4E3
:104950000E946B3A8823C1F10E94383A11E020E0AE
:1049600030E0A9010F94F000811101C010E0109314
:10497000B213112349F10E94383AE091B71324E0B1
:10498000E29FF0011124E255FC4E60837183828323
:10499000938320E030E0A9016091AE137091AF13D2
:1049A0008091B0139091B1130F94F00081110CC05D
:1049B00080E090E0A0EEBFE38093AE139093AF133E
:1049C000A093B013B093B1130E9475E80C94AD2E70
:1049D000E2E7EE2EE3E1FE2E0FE412E0F4E0DF2E3C
:1049E000D00ED8018D918D010E946B3A882339F049
:1049F0000E94383AF7016083718382839383F4E0E5
:104A0000EF0EF11CD012EDCF0C94AD2E83E50E9479
:104A1000B23A8823A1F00E94383A60939A137093B7
:104A20009B1380939C1390939D13609392137093A8
:104A30009313809394139093951310E001C011E0A9
:104A400080E50E94B23A882359F00E94383A609378
:104A50009A1370939B1380939C1390939D1310E073
:104A600082E50E94B23A882359F00E94383A609356
:104A7000961370939713809398139093991310E063
:104A800084E50E94B23A882361F00E94383A60932C
:104A900092137093931380939413909395130C94A3
:104AA000AD2E112311F40C94AD2E40919A13509118
:104AB0009B1360919C1370919D1385EE93E00E946F
:104AC00006514091961350919713609198137091ED
:104AD000991382EE93E00E940651409192135091F7
:104AE000931360919413709195138FED93E00E944E
:104AF00006518AE00E944E3B0C94AD2E82E40E9447
:104B00006B3A882351F00E94F8396093900C7093AF
:104B1000910C8093920C9093930C83E50E946B3AD6
:104B2000882351F00E94383A60936E1370936F138C
:104B3000809370139093711384E50E946B3A8823DD
:104B400051F00E94383A60936A1370936B1380930C
:104B50006C1390936D1388E50E946B3A882351F093
:104B60000E94383A60939E1370939F138093A01312
:104B70009093A11389E50E946B3A882351F00E941B
:104B8000383A6093A2137093A3138093A413909365
:104B9000A5138AE50E946B3A8823F1F00E94383A07
:104BA0006093A6137093A7138093A8139093A913EF
:104BB0002DEC3CEC4CEC5DE30F94F000181664F027
:104BC000E5EFF3E084918F010F5F1F4F882321F001
:104BD0000E944E3BF801F6CF85E40E946B3A882391
:104BE00011F40C94AD2E0E94383A6093AA1370937E
:104BF000AB138093AC139093AD130C94AD2E6FE474
:104C0000C62E62E0D62E75E5E72E7AE0F72E10E08C
:104C1000D6018D916D010E946B3A882351F00E945C
:104C2000383AF7016083718382839383812F0E94D6
:104C30005C371F5FF4E0EF0EF11C133049F70C9462
:104C4000481D0E940F4381110C94AD2E58E6852E0D
:104C50005BE1952E2BE134E039AF28AFAE014F5F19
:104C60005F4F5A0101EC1BE11A0153E0500F5CAF9A
:104C7000F4016591759185919491A8ADB9ADCD90F0
:104C8000DD90ED90FD90B9AFA8AFA70196010F940C
:104C900006052B013C0120E030E040EA51EC0F9486
:104CA0002D0787FD10C020E030E040EA51E4C30149
:104CB000B2010F94F000181634F0F10140825182D5
:104CC000628273820EC0F80184911816B4F7F7FA65
:104CD000F094F7F8F094D101CD92DD92ED92FC9230
:104CE0001397D101CD90DD90ED90FD901D0120E056
:104CF00030E040EA51ECC701B6010F942D0787FF61
:104D000003C0EEE0F1E20BC020E030E040EA51E405
:104D1000C701B6010F94F000181674F5F2CF849114
:104D20008F010F5F1F4F882321F00E944E3BF80137
:104D3000F6CFE5E4F4E084918F010F5F1F4F8823E5
:104D400021F00E944E3BF801F6CF61E087E394E04A
:104D50000E94FD740E94B67888E290E099A388A32F
:104D600088EC90E09DA78CA7BE01605E7F4FCE01CE
:104D70008C960E94DDB6F1C7B4E08B0E911C0F5FDC
:104D80001F4FECADE01374CF45E5E42E4AE0F42E5E
:104D900010E0F50181919191A191B1915F01F7012D
:104DA00081939193A193B1937F01812F0E945C37EE
:104DB0001F5F133071F70E94E17E60E087E294E0AC
:104DC0000E94FD7483E992E09DA78CA704E610E0A1
:104DD00019A308A3BE01645D7F4FCE0180960E9497
:104DE000DDB68AEB92E09DA78CA719A308A3BE01AC
:104DF000645D7F4FCE0180960E94DDB6AEC7849180
:104E00008F010F5F1F4F882321F00E944E3BF80156
:104E1000F6CF83E50E946B3A882321F00E94293A5D
:104E200080933002EBE8F4E084918F010F5F1F4F15
:104E3000882321F00E944E3BF801F6CF809130028A
:104E4000811103C0E7E8F4E002C0E3E8F4E08491F4
:104E50008F010F5F1F4F882321F00E944E3BF80106
:104E6000F6CFEBE7F4E084918F010F5F1F4F8823AB
:104E700021F00E944E3BF801F6CF2091FB033091C8
:104E8000FC034091FD035091FE036091490C709129
:104E90004A0C80914B0C90914C0C0F940705AB0180
:104EA000BC0189E794E00E9406512091FF033091F4
:104EB0000004409101045091020460914D0C7091E6
:104EC0004E0C80914F0C9091500C0F940705AB0144
:104ED000BC0186E794E00E940651209103043091C2
:104EE000040440910504509106046091510C7091A6
:104EF000520C8091530C9091540C0F940705AB0108
:104F0000BC0183E794E00E940651EBE6F4E0849153
:104F10008F010F5F1F4F882321F00E944E3BF80145
:104F2000F6CF2091FB033091FC034091FD0350919B
:104F3000FE036091240270912502809126029091D7
:104F400027020F940705AB01BC0189E694E00E949B
:104F500006512091FF0330910004409101045091CB
:104F60000204609128027091290280912A02909196
:104F70002B020F940705AB01BC0186E694E00E946A
:104F8000065120910304309104044091050450918E
:104F9000060460912C0270912D0280912E02909156
:104FA0002F020F940705AB01BC0183E694E00E9439
:104FB00006518AE00E944E3BD0C683E50E94B23A79
:104FC000882309F4CAC60E94083A7093420260938B
:104FD0004102C3C68DED90E00E944B3E8111BDC6DB
:104FE00083E50E94B23A8823D9F10091B71310E00B
:104FF0000E94083A000F111FF801E15CFD4F718318
:1050000060838091B71390E08C01000F111F000F97
:10501000111F9801255C3D4F7901880F991FFC01F4
:10502000E15CFD4F60817181072E000C880B990BAC
:105030000F94F6002AE037ED43E25CE30F9455014C
:10504000F801EC5EFB4E20813181428153810F9447
:105050005501D7016D937D938D939C9313977DC6D6
:10506000E7EBFFE184918F010F5F1F4F882321F051
:105070000E944E3BF801F6CF85E40E944E3B8091A2
:10508000B713805D0E944E3BE091B713F0E0EE0F46
:10509000FF1FE15CFD4F608171818BE994E00E940C
:1050A000235185E20E944E3B8AE00E944E3B55C64A
:1050B00080E50E946B3A882309F44FC60E94083AA3
:1050C0006B017C0183E50E94B23A882321F00E94A3
:1050D000083A8B0102C00FEF1FEFC801019603973A
:1050E00008F03BC6D7FC39C69C2DE3EAF4E08DE21C
:1050F0008E0F2491921711F40C946C3231968E130A
:10510000F8CF0C946F3283E50E94B23A882319F0ED
:105110000E94083A02C064E071E079A368A380E5C8
:105120000E94B23A882339F00E94083A6938B3E104
:105130007B0730F402C068EE73E07A83698304C0B1
:1051400088E893E19A838983BE01605E7F4FCE0138
:1051500001960E94DDB601C685E40E94B23A811133
:1051600010C080E50E946B3A882391F00E94383A83
:105170006093D2097093D3098093D4099093D50991
:1051800007C00E94183A882361F3EEE0F1E26EC096
:1051900089E40E946B3A882381F00E94383A2CEA15
:1051A00035EC47E25EE30F9455016093DA097093A2
:1051B000DB098093DC099093DD0984E40E946B3A5B
:1051C000882381F00E94383A2CEA35EC47E25EE30E
:1051D0000F94E3056093D6097093D7098093D8099B
:1051E0009093D909E7EBFFE184918F010F5F1F4F87
:1051F000882321F00E944E3BF801F6CF4091D2095E
:105200005091D3096091D4097091D50988ED94E04B
:105210000E9406512CEA35EC47E25EE36091DA0920
:105220007091DB098091DC099091DD090F94E30511
:10523000AB01BC0184ED94E00E9406512CEA35ECF0
:1052400047E25EE36091D6097091D7098091D80951
:105250009091D9090F945501AB01BC0180ED94E008
:105260000E9406518AE00E944E3B77C584918F01CF
:105270000F5F1F4F882321F00E944E3BF801F6CFAD
:10528000ECEDF4E084918F010F5F1F4F882309F448
:1052900064C50E944E3BF801F5CF83E50E946B3A4E
:1052A000182F882371F00E94383A0F944B067093A0
:1052B00037026093360221E0672B09F020E020934B
:1052C000940C80E50E946B3A882359F020913602B5
:1052D00030913702232B11F00E94293A8093940CCD
:1052E0003CC511113AC5E7EBFFE184918F010F5FD7
:1052F0001F4F882321F00E944E3BF801F6CF80918A
:10530000940C811103C060E573E002C063E473E0B4
:1053100083E095E00E943C51609136027091370223
:1053200082EF94E00E942351EEEEF4E084918F012D
:105330000F5F1F4F882309F410C50E944E3BF801F0
:10534000F5CF85E40E94B23A882321F00E94083A02
:105350007B0102C0E12CF12C83E40E94B23A882345
:1053600031F00E94083AEA966FAFEA9704C025E050
:10537000EA962FAFEA9785E50E94B23A882319F0A2
:105380000E94293A03C085E50E946B3ACB57DF4F54
:105390008883C558D040F7FC07C0812C912CF6E1DA
:1053A000AF2EF3E4BF2E06C0812C912CECE8AE2E7C
:1053B000E2E4BE2E83E50E94B23A882321F00E94E7
:1053C000383A4B015C01E114F10411F41092B71367
:1053D0000E94775C2B013C01EE2069F0E5E8F6E0E5
:1053E00084918F010F5F1F4F882309F4B6C40E9478
:1053F0004E3BF801F5CFEFEAF6E084917F013FEFF5
:10540000E31AF30A882321F00E944E3BF701F5CFFF
:10541000C501B4010F944B06072E000C880B990BA5
:105420000F94F60025966FAF259721967FAF2197B1
:1054300029968FAF29972D969FAF2D97D301C20143
:10544000805E914BAF4FBF4FC257DF4F8883998328
:10545000AA83BB83CE58D0400E9418D18FE7809397
:10546000B61381E080932102C358DF4F48825982EE
:105470006A827B82CD57D040CA57DF4F488259821B
:105480006A827B82C658D040ED961FAEED97C65714
:10549000DF4F188219821A821B82CA58D040A19607
:1054A0001FAEA19790E465969FAF6597ACE16996B2
:1054B000AFAF6997B6E4A596BFAFA5976D961FAE3F
:1054C0006D97A9961FAEA997AD961FAEAD97E196C1
:1054D0001FAEE197E9961CAE1DAE1EAE1FAEE9975A
:1054E000E5961CAE1DAE1EAE1FAEE597C12CD12CAD
:1054F00076012FE730E040E050E02CAF3DAF4EAFFB
:105500005FAF7FE7872E912CA12CB12CCF57DF4FB7
:10551000188219821A821B82C158D04031E0EC9661
:105520003FAFEC9762961FAE1EAE629710E0212C43
:10553000312C00E0EA964FADEA97042E000C550B93
:10554000EB965FAF4EAFEB9780912102882309F471
:1055500015C10E94775C68AF79AF8AAF9BAF80912D
:10556000B313882309F4E6C00E94D8D11091160C19
:105570002090170C3090180C0091190C212F322D0F
:10558000432D502F6D966FAD6D97A9967FADA9975E
:10559000AD968FADAD97E1969FADE1970F94F0007A
:1055A00087FF0CC06D961FAF6D97A9962FAEA99778
:1055B000AD963FAEAD97E1960FAFE197212F322D1B
:1055C000432D502FA1966FADA19765967FAD65973E
:1055D00069968FAD6997A5969FADA5970F942D07F6
:1055E000181664F4A1961FAFA19765962FAE659724
:1055F00069963FAE6997A5960FAFA597EC965FADFC
:10560000EC9725962FAD259721963FAD21972996AA
:105610004FAD2997552309F46AC02D965FAD2D979C
:10562000612F722D832D902F0F942D0718160CF0DB
:1056300081C088AD99ADAAADBBAD84199509A60905
:10564000B709CE56DF4F88839983AA83BB83C2599B
:10565000D04088589341A109B109B7FD6BC0D5016D
:10566000C4012CAD3DAD4EAD5FAD821B930BA40BC1
:10567000B50BB595A795979587958093B613CE569C
:10568000DF4F88819981AA81BB81C259D040CF5711
:10569000DF4F88839983AA83BB83C158D040259666
:1056A0009FAD25976D969FAF6D972196AFAD2197D2
:1056B000A996AFAFA9972996BFAD2997AD96BFAF71
:1056C000AD972D96EFAD2D97E196EFAFE19728AD11
:1056D00039AD4AAD5BADC358DF4F288339834A8368
:1056E0005B83CD57D040EC961FAEEC9723C02D9630
:1056F0005FAD2D97612F722D832D902F0F94F000A9
:1057000087FF18C088AD99ADAAADBBADC358DF4FB8
:10571000288139814A815B81CD57D040821B930B10
:10572000A40BB50BAC01BD01485853416109710987
:1057300077FFFDC620E030E040EA51E425966FADEA
:10574000259721967FAD219729968FAD29972D9684
:105750009FAD2D970F9407059B01AC01612F722D12
:10576000832D902F0F942D0718167CF4E1E1F6E0BD
:1057700084918F010F5F1F4F811103C00E9418D1C8
:10578000ECC20E944E3BF801F3CF88AD99ADAAADB3
:10579000BBADCA57DF4F288139814A815B81C6582A
:1057A000D040821B930BA40BB50BB7FDABC00E947E
:1057B00079CE8AE00E944E3B88AD99ADAAADBBADD3
:1057C0008053984FAF4FBF4FCA57DF4F888399839D
:1057D000AA83BB83C658D040ED969FADED9791113B
:1057E0006EC0C657DF4F288139814A815B81CA5814
:1057F000D040612F722D832D902F0F942D071816F6
:105800000CF046C020E030E040E050E4612F722D03
:10581000832D902F0F940705C657DF4F6883798338
:105820008A839B83CA58D04028AD39AD4AAD5BAD61
:10583000205E314B4F4F5F4FC257DF4F2883398374
:105840004A835B83CE58D04020E030E040E551E40D
:1058500025966FAD259721967FAD219729968FAD1F
:1058600029972D969FAD2D970F9406059B01AC01AE
:1058700081E0ED968FAFED97612F722D832D902FE4
:105880000F942D071816F4F1ED961FAEED973AC060
:1058900088AD99ADAAADBBADC257DF4F2881398124
:1058A0004A815B81CE58D040821B930BA40BB50B71
:1058B000B7FD28C040EF55E062E076E020C020E070
:1058C00030E040EA51E425966FAD259721967FADF3
:1058D000219729968FAD29972D969FAD2D970F94DF
:1058E00006059B01AC01612F722D832D902F0F9423
:1058F000F00087FF07C04DEC55E060EE75E080E0FA
:105900000E94614888AD99ADAAADBBAD880F991FC3
:10591000AA1FBB1FC358DF4F288139814A815B8191
:10592000CD57D040821B930BA40BB50B841995095E
:10593000A609B70981389F44A241B10568F0EFEA92
:10594000F5E084918F010F5F1F4F882309F416CF74
:105950000E944E3BF801F5CF62964EAD5FAD629767
:10596000EB968EAD9FADEB97841795070CF068C052
:10597000E2E5F5E084918F010F5F1F4F882321F04E
:105980000E944E3BF801F6CFB701A6018EE395E0E9
:105990000E9406518AE00E944E3BE5964CAD5DADFB
:1059A0006EAD7FADE5978AE295E00E9406518AE0F0
:1059B0000E944E3BE9964CAD5DAD6EAD7FADE99773
:1059C00086E195E00E9406518AE00E944E3BCB574B
:1059D000DF4F9881C558D040992309F4BEC1C092C9
:1059E000D209D092D309E092D409F092D5092CEAD9
:1059F00035EC47E25EE3E5966CAD7DAD8EAD9FADD7
:105A0000E5970F9455016093DA097093DB09809351
:105A1000DC099093DD092CEA35EC47E25EE3E99678
:105A20006CAD7DAD8EAD9FADE9970F94E3056093AE
:105A3000D6097093D7098093D8099093D9098DC15D
:105A40000E945E7581CD84918F010F5F1F4F882367
:105A500021F00E944E3BF801F6CFE3ECF6E0849192
:105A60008F010F5F1F4F882309F477C10E944E3BBF
:105A7000F801F5CF0E94DAE870C181E00E94BC36DF
:105A80000E94E17E6AC10E94AF9B67C10E9467D9F4
:105A900064C10E9449D861C183E50E946B3A8823A2
:105AA00021F00E94293A91E089270E9465D355C1CF
:105AB00081E08093EF130E9416641092EF13882305
:105AC00009F44BC1E7EBFFE184918F010F5F1F4F9A
:105AD000882321F00E944E3BF801F6CFE2EDF6E07C
